{
  "contractName": "Voting",
  "abi": [
    {
      "anonymous": false,
      "inputs": [
        {
          "indexed": true,
          "internalType": "address",
          "name": "previousOwner",
          "type": "address"
        },
        {
          "indexed": true,
          "internalType": "address",
          "name": "newOwner",
          "type": "address"
        }
      ],
      "name": "OwnershipTransferred",
      "type": "event"
    },
    {
      "anonymous": false,
      "inputs": [
        {
          "indexed": false,
          "internalType": "uint256",
          "name": "proposalId",
          "type": "uint256"
        }
      ],
      "name": "ProposalRegistered",
      "type": "event"
    },
    {
      "anonymous": false,
      "inputs": [
        {
          "indexed": false,
          "internalType": "address",
          "name": "voter",
          "type": "address"
        },
        {
          "indexed": false,
          "internalType": "uint256",
          "name": "proposalId",
          "type": "uint256"
        }
      ],
      "name": "Voted",
      "type": "event"
    },
    {
      "anonymous": false,
      "inputs": [
        {
          "indexed": false,
          "internalType": "address",
          "name": "voterAddress",
          "type": "address"
        }
      ],
      "name": "VoterRegistered",
      "type": "event"
    },
    {
      "anonymous": false,
      "inputs": [
        {
          "indexed": false,
          "internalType": "enum Voting.WorkflowStatus",
          "name": "previousStatus",
          "type": "uint8"
        },
        {
          "indexed": false,
          "internalType": "enum Voting.WorkflowStatus",
          "name": "newStatus",
          "type": "uint8"
        }
      ],
      "name": "WorkflowStatusChange",
      "type": "event"
    },
    {
      "inputs": [],
      "name": "owner",
      "outputs": [
        {
          "internalType": "address",
          "name": "",
          "type": "address"
        }
      ],
      "stateMutability": "view",
      "type": "function",
      "constant": true
    },
    {
      "inputs": [
        {
          "internalType": "uint256",
          "name": "",
          "type": "uint256"
        }
      ],
      "name": "proposals",
      "outputs": [
        {
          "internalType": "string",
          "name": "description",
          "type": "string"
        },
        {
          "internalType": "uint256",
          "name": "voteCount",
          "type": "uint256"
        }
      ],
      "stateMutability": "view",
      "type": "function",
      "constant": true
    },
    {
      "inputs": [],
      "name": "renounceOwnership",
      "outputs": [],
      "stateMutability": "nonpayable",
      "type": "function"
    },
    {
      "inputs": [],
      "name": "status",
      "outputs": [
        {
          "internalType": "enum Voting.WorkflowStatus",
          "name": "",
          "type": "uint8"
        }
      ],
      "stateMutability": "view",
      "type": "function",
      "constant": true
    },
    {
      "inputs": [
        {
          "internalType": "address",
          "name": "newOwner",
          "type": "address"
        }
      ],
      "name": "transferOwnership",
      "outputs": [],
      "stateMutability": "nonpayable",
      "type": "function"
    },
    {
      "inputs": [
        {
          "internalType": "address",
          "name": "",
          "type": "address"
        }
      ],
      "name": "voters",
      "outputs": [
        {
          "internalType": "bool",
          "name": "isRegistered",
          "type": "bool"
        },
        {
          "internalType": "bool",
          "name": "hasVoted",
          "type": "bool"
        },
        {
          "internalType": "uint256",
          "name": "votedProposalId",
          "type": "uint256"
        }
      ],
      "stateMutability": "view",
      "type": "function",
      "constant": true
    },
    {
      "inputs": [],
      "name": "winningProposalId",
      "outputs": [
        {
          "internalType": "uint256",
          "name": "",
          "type": "uint256"
        }
      ],
      "stateMutability": "view",
      "type": "function",
      "constant": true
    },
    {
      "inputs": [
        {
          "internalType": "address",
          "name": "_voterAddress",
          "type": "address"
        }
      ],
      "name": "registerVoter",
      "outputs": [],
      "stateMutability": "nonpayable",
      "type": "function"
    },
    {
      "inputs": [],
      "name": "startProposalRegistration",
      "outputs": [],
      "stateMutability": "nonpayable",
      "type": "function"
    },
    {
      "inputs": [
        {
          "internalType": "string",
          "name": "_proposalDescription",
          "type": "string"
        }
      ],
      "name": "submitProposal",
      "outputs": [],
      "stateMutability": "nonpayable",
      "type": "function"
    },
    {
      "inputs": [],
      "name": "endProposalRegistration",
      "outputs": [],
      "stateMutability": "nonpayable",
      "type": "function"
    },
    {
      "inputs": [],
      "name": "startVotingSession",
      "outputs": [],
      "stateMutability": "nonpayable",
      "type": "function"
    },
    {
      "inputs": [
        {
          "internalType": "uint256",
          "name": "_proposalId",
          "type": "uint256"
        }
      ],
      "name": "vote",
      "outputs": [],
      "stateMutability": "nonpayable",
      "type": "function"
    },
    {
      "inputs": [],
      "name": "endVotingSession",
      "outputs": [],
      "stateMutability": "nonpayable",
      "type": "function"
    },
    {
      "inputs": [],
      "name": "tallyVotes",
      "outputs": [],
      "stateMutability": "nonpayable",
      "type": "function"
    },
    {
      "inputs": [],
      "name": "getWinner",
      "outputs": [
        {
          "internalType": "string",
          "name": "",
          "type": "string"
        }
      ],
      "stateMutability": "view",
      "type": "function",
      "constant": true
    }
  ],
  "bytecode": "0x608060405234801561001057600080fd5b5061002d61002261003260201b60201c565b61003a60201b60201c565b6100fe565b600033905090565b60008060009054906101000a900473ffffffffffffffffffffffffffffffffffffffff169050816000806101000a81548173ffffffffffffffffffffffffffffffffffffffff021916908373ffffffffffffffffffffffffffffffffffffffff1602179055508173ffffffffffffffffffffffffffffffffffffffff168173ffffffffffffffffffffffffffffffffffffffff167f8be0079c531659141344cd1fd0a4f28419497f9722a3daafe3b4186f6b6457e060405160405180910390a35050565b611e178061010d6000396000f3fe608060405234801561001057600080fd5b50600436106101005760003560e01c80638da5cb5b11610097578063c64963c511610066578063c64963c51461023e578063e85a8f2a1461025c578063ee74c67814610266578063f2fde38b1461027057610100565b80638da5cb5b146101c65780638e7ea5b2146101e4578063a3ec138d14610202578063a7bfab161461023457610100565b8063373d6d5e116100d3578063373d6d5e1461017a578063378a21781461019657806338db6dd3146101a0578063715018a6146101bc57610100565b80630121b93f14610105578063013cf08b146101215780630f7e283814610152578063200d2ed21461015c575b600080fd5b61011f600480360381019061011a91906111c7565b61028c565b005b61013b600480360381019061013691906111c7565b61053d565b604051610149929190611293565b60405180910390f35b61015a6105f9565b005b6101646106e1565b604051610171919061133a565b60405180910390f35b610194600480360381019061018f919061148a565b6106f4565b005b61019e6108a9565b005b6101ba60048036038101906101b59190611531565b610a1a565b005b6101c4610b46565b005b6101ce610b5a565b6040516101db919061156d565b60405180910390f35b6101ec610b83565b6040516101f99190611588565b60405180910390f35b61021c60048036038101906102179190611531565b610caf565b60405161022b939291906115c5565b60405180910390f35b61023c610cf3565b005b610246610ddb565b60405161025391906115fc565b60405180910390f35b610264610de1565b005b61026e610ec9565b005b61028a60048036038101906102859190611531565b610fb0565b005b600160003373ffffffffffffffffffffffffffffffffffffffff1673ffffffffffffffffffffffffffffffffffffffff16815260200190815260200160002060000160009054906101000a900460ff1661031b576040517f08c379a000000000000000000000000000000000000000000000000000000000815260040161031290611689565b60405180910390fd5b60038060058111156103305761032f6112c3565b5b600360009054906101000a900460ff166005811115610352576103516112c3565b5b14610392576040517f08c379a00000000000000000000000000000000000000000000000000000000081526004016103899061171b565b60405180910390fd5b600160003373ffffffffffffffffffffffffffffffffffffffff1673ffffffffffffffffffffffffffffffffffffffff16815260200190815260200160002060000160019054906101000a900460ff1615610422576040517f08c379a000000000000000000000000000000000000000000000000000000000815260040161041990611787565b60405180910390fd5b60018060003373ffffffffffffffffffffffffffffffffffffffff1673ffffffffffffffffffffffffffffffffffffffff16815260200190815260200160002060000160016101000a81548160ff02191690831515021790555081600160003373ffffffffffffffffffffffffffffffffffffffff1673ffffffffffffffffffffffffffffffffffffffff168152602001908152602001600020600101819055506001600283815481106104d9576104d86117a7565b5b906000526020600020906002020160010160008282546104f99190611805565b925050819055507f4d99b957a2bc29a30ebd96a7be8e68fe50a3c701db28a91436490b7d53870ca43383604051610531929190611839565b60405180910390a15050565b6002818154811061054d57600080fd5b906000526020600020906002020160009150905080600001805461057090611891565b80601f016020809104026020016040519081016040528092919081815260200182805461059c90611891565b80156105e95780601f106105be576101008083540402835291602001916105e9565b820191906000526020600020905b8154815290600101906020018083116105cc57829003601f168201915b5050505050908060010154905082565b610601611033565b6000806005811115610616576106156112c3565b5b600360009054906101000a900460ff166005811115610638576106376112c3565b5b14610678576040517f08c379a000000000000000000000000000000000000000000000000000000000815260040161066f9061171b565b60405180910390fd5b6001600360006101000a81548160ff0219169083600581111561069e5761069d6112c3565b5b02179055507f0a97a4ee45751e2abf3e4fc8946939630b11b371ea8ae39ccdc3056e98f5cc3f600060016040516106d69291906118c2565b60405180910390a150565b600360009054906101000a900460ff1681565b600160003373ffffffffffffffffffffffffffffffffffffffff1673ffffffffffffffffffffffffffffffffffffffff16815260200190815260200160002060000160009054906101000a900460ff16610783576040517f08c379a000000000000000000000000000000000000000000000000000000000815260040161077a90611689565b60405180910390fd5b6001806005811115610798576107976112c3565b5b600360009054906101000a900460ff1660058111156107ba576107b96112c3565b5b146107fa576040517f08c379a00000000000000000000000000000000000000000000000000000000081526004016107f19061171b565b60405180910390fd5b600260405180604001604052808481526020016000815250908060018154018082558091505060019003906000526020600020906002020160009091909190915060008201518160000190816108509190611a97565b506020820151816001015550507f92e393e9b54e2f801d3ea4beb0c5e71a21cc34a5d34b77d0fb8a3aa1650dc18f60016002805490506108909190611b69565b60405161089d91906115fc565b60405180910390a15050565b6108b1611033565b60048060058111156108c6576108c56112c3565b5b600360009054906101000a900460ff1660058111156108e8576108e76112c3565b5b14610928576040517f08c379a000000000000000000000000000000000000000000000000000000000815260040161091f9061171b565b60405180910390fd5b60008060005b6002805490508110156109a75782600282815481106109505761094f6117a7565b5b9060005260206000209060020201600101541115610994576002818154811061097c5761097b6117a7565b5b90600052602060002090600202016001015492508091505b808061099f90611b9d565b91505061092e565b50806004819055506005600360006101000a81548160ff021916908360058111156109d5576109d46112c3565b5b02179055507f0a97a4ee45751e2abf3e4fc8946939630b11b371ea8ae39ccdc3056e98f5cc3f60046005604051610a0d9291906118c2565b60405180910390a1505050565b610a22611033565b600160008273ffffffffffffffffffffffffffffffffffffffff1673ffffffffffffffffffffffffffffffffffffffff16815260200190815260200160002060000160009054906101000a900460ff1615610ab2576040517f08c379a0000000000000000000000000000000000000000000000000000000008152600401610aa990611c31565b60405180910390fd5b60018060008373ffffffffffffffffffffffffffffffffffffffff1673ffffffffffffffffffffffffffffffffffffffff16815260200190815260200160002060000160006101000a81548160ff0219169083151502179055507fb6be2187d059cc2a55fe29e0e503b566e1e0f8c8780096e185429350acffd3dd81604051610b3b919061156d565b60405180910390a150565b610b4e611033565b610b5860006110b1565b565b60008060009054906101000a900473ffffffffffffffffffffffffffffffffffffffff16905090565b6060600580811115610b9857610b976112c3565b5b600360009054906101000a900460ff166005811115610bba57610bb96112c3565b5b14610bfa576040517f08c379a0000000000000000000000000000000000000000000000000000000008152600401610bf190611cc3565b60405180910390fd5b600260045481548110610c1057610c0f6117a7565b5b90600052602060002090600202016000018054610c2c90611891565b80601f0160208091040260200160405190810160405280929190818152602001828054610c5890611891565b8015610ca55780601f10610c7a57610100808354040283529160200191610ca5565b820191906000526020600020905b815481529060010190602001808311610c8857829003601f168201915b5050505050905090565b60016020528060005260406000206000915090508060000160009054906101000a900460ff16908060000160019054906101000a900460ff16908060010154905083565b610cfb611033565b6003806005811115610d1057610d0f6112c3565b5b600360009054906101000a900460ff166005811115610d3257610d316112c3565b5b14610d72576040517f08c379a0000000000000000000000000000000000000000000000000000000008152600401610d699061171b565b60405180910390fd5b6004600360006101000a81548160ff02191690836005811115610d9857610d976112c3565b5b02179055507f0a97a4ee45751e2abf3e4fc8946939630b11b371ea8ae39ccdc3056e98f5cc3f60036004604051610dd09291906118c2565b60405180910390a150565b60045481565b610de9611033565b6001806005811115610dfe57610dfd6112c3565b5b600360009054906101000a900460ff166005811115610e2057610e1f6112c3565b5b14610e60576040517f08c379a0000000000000000000000000000000000000000000000000000000008152600401610e579061171b565b60405180910390fd5b6002600360006101000a81548160ff02191690836005811115610e8657610e856112c3565b5b02179055507f0a97a4ee45751e2abf3e4fc8946939630b11b371ea8ae39ccdc3056e98f5cc3f60016002604051610ebe9291906118c2565b60405180910390a150565b610ed1611033565b6002806005811115610ee657610ee56112c3565b5b600360009054906101000a900460ff166005811115610f0857610f076112c3565b5b14610f48576040517f08c379a0000000000000000000000000000000000000000000000000000000008152600401610f3f9061171b565b60405180910390fd5b60038060006101000a81548160ff02191690836005811115610f6d57610f6c6112c3565b5b02179055507f0a97a4ee45751e2abf3e4fc8946939630b11b371ea8ae39ccdc3056e98f5cc3f60026003604051610fa59291906118c2565b60405180910390a150565b610fb8611033565b600073ffffffffffffffffffffffffffffffffffffffff168173ffffffffffffffffffffffffffffffffffffffff1603611027576040517f08c379a000000000000000000000000000000000000000000000000000000000815260040161101e90611d55565b60405180910390fd5b611030816110b1565b50565b61103b611175565b73ffffffffffffffffffffffffffffffffffffffff16611059610b5a565b73ffffffffffffffffffffffffffffffffffffffff16146110af576040517f08c379a00000000000000000000000000000000000000000000000000000000081526004016110a690611dc1565b60405180910390fd5b565b60008060009054906101000a900473ffffffffffffffffffffffffffffffffffffffff169050816000806101000a81548173ffffffffffffffffffffffffffffffffffffffff021916908373ffffffffffffffffffffffffffffffffffffffff1602179055508173ffffffffffffffffffffffffffffffffffffffff168173ffffffffffffffffffffffffffffffffffffffff167f8be0079c531659141344cd1fd0a4f28419497f9722a3daafe3b4186f6b6457e060405160405180910390a35050565b600033905090565b6000604051905090565b600080fd5b600080fd5b6000819050919050565b6111a481611191565b81146111af57600080fd5b50565b6000813590506111c18161119b565b92915050565b6000602082840312156111dd576111dc611187565b5b60006111eb848285016111b2565b91505092915050565b600081519050919050565b600082825260208201905092915050565b60005b8381101561122e578082015181840152602081019050611213565b60008484015250505050565b6000601f19601f8301169050919050565b6000611256826111f4565b61126081856111ff565b9350611270818560208601611210565b6112798161123a565b840191505092915050565b61128d81611191565b82525050565b600060408201905081810360008301526112ad818561124b565b90506112bc6020830184611284565b9392505050565b7f4e487b7100000000000000000000000000000000000000000000000000000000600052602160045260246000fd5b60068110611303576113026112c3565b5b50565b6000819050611314826112f2565b919050565b600061132482611306565b9050919050565b61133481611319565b82525050565b600060208201905061134f600083018461132b565b92915050565b600080fd5b600080fd5b7f4e487b7100000000000000000000000000000000000000000000000000000000600052604160045260246000fd5b6113978261123a565b810181811067ffffffffffffffff821117156113b6576113b561135f565b5b80604052505050565b60006113c961117d565b90506113d5828261138e565b919050565b600067ffffffffffffffff8211156113f5576113f461135f565b5b6113fe8261123a565b9050602081019050919050565b82818337600083830152505050565b600061142d611428846113da565b6113bf565b9050828152602081018484840111156114495761144861135a565b5b61145484828561140b565b509392505050565b600082601f83011261147157611470611355565b5b813561148184826020860161141a565b91505092915050565b6000602082840312156114a05761149f611187565b5b600082013567ffffffffffffffff8111156114be576114bd61118c565b5b6114ca8482850161145c565b91505092915050565b600073ffffffffffffffffffffffffffffffffffffffff82169050919050565b60006114fe826114d3565b9050919050565b61150e816114f3565b811461151957600080fd5b50565b60008135905061152b81611505565b92915050565b60006020828403121561154757611546611187565b5b60006115558482850161151c565b91505092915050565b611567816114f3565b82525050565b6000602082019050611582600083018461155e565b92915050565b600060208201905081810360008301526115a2818461124b565b905092915050565b60008115159050919050565b6115bf816115aa565b82525050565b60006060820190506115da60008301866115b6565b6115e760208301856115b6565b6115f46040830184611284565b949350505050565b60006020820190506116116000830184611284565b92915050565b7f4f6e6c79207265676973746572656420766f746572732063616e20706572666f60008201527f726d207468697320616374696f6e000000000000000000000000000000000000602082015250565b6000611673602e836111ff565b915061167e82611617565b604082019050919050565b600060208201905081810360008301526116a281611666565b9050919050565b7f5468697320616374696f6e2063616e206f6e6c7920626520706572666f726d6560008201527f6420647572696e67207468652073706563696669656420737461747573000000602082015250565b6000611705603d836111ff565b9150611710826116a9565b604082019050919050565b60006020820190508181036000830152611734816116f8565b9050919050565b7f566f7465722068617320616c726561647920766f746564000000000000000000600082015250565b60006117716017836111ff565b915061177c8261173b565b602082019050919050565b600060208201905081810360008301526117a081611764565b9050919050565b7f4e487b7100000000000000000000000000000000000000000000000000000000600052603260045260246000fd5b7f4e487b7100000000000000000000000000000000000000000000000000000000600052601160045260246000fd5b600061181082611191565b915061181b83611191565b9250828201905080821115611833576118326117d6565b5b92915050565b600060408201905061184e600083018561155e565b61185b6020830184611284565b9392505050565b7f4e487b7100000000000000000000000000000000000000000000000000000000600052602260045260246000fd5b600060028204905060018216806118a957607f821691505b6020821081036118bc576118bb611862565b5b50919050565b60006040820190506118d7600083018561132b565b6118e4602083018461132b565b9392505050565b60008190508160005260206000209050919050565b60006020601f8301049050919050565b600082821b905092915050565b60006008830261194d7fffffffffffffffffffffffffffffffffffffffffffffffffffffffffffffffff82611910565b6119578683611910565b95508019841693508086168417925050509392505050565b6000819050919050565b600061199461198f61198a84611191565b61196f565b611191565b9050919050565b6000819050919050565b6119ae83611979565b6119c26119ba8261199b565b84845461191d565b825550505050565b600090565b6119d76119ca565b6119e28184846119a5565b505050565b5b81811015611a06576119fb6000826119cf565b6001810190506119e8565b5050565b601f821115611a4b57611a1c816118eb565b611a2584611900565b81016020851015611a34578190505b611a48611a4085611900565b8301826119e7565b50505b505050565b600082821c905092915050565b6000611a6e60001984600802611a50565b1980831691505092915050565b6000611a878383611a5d565b9150826002028217905092915050565b611aa0826111f4565b67ffffffffffffffff811115611ab957611ab861135f565b5b611ac38254611891565b611ace828285611a0a565b600060209050601f831160018114611b015760008415611aef578287015190505b611af98582611a7b565b865550611b61565b601f198416611b0f866118eb565b60005b82811015611b3757848901518255600182019150602085019450602081019050611b12565b86831015611b545784890151611b50601f891682611a5d565b8355505b6001600288020188555050505b505050505050565b6000611b7482611191565b9150611b7f83611191565b9250828203905081811115611b9757611b966117d6565b5b92915050565b6000611ba882611191565b91507fffffffffffffffffffffffffffffffffffffffffffffffffffffffffffffffff8203611bda57611bd96117d6565b5b600182019050919050565b7f566f74657220697320616c726561647920726567697374657265640000000000600082015250565b6000611c1b601b836111ff565b9150611c2682611be5565b602082019050919050565b60006020820190508181036000830152611c4a81611c0e565b9050919050565b7f566f746573206d7573742062652074616c6c69656420746f206765742074686560008201527f2077696e6e657200000000000000000000000000000000000000000000000000602082015250565b6000611cad6027836111ff565b9150611cb882611c51565b604082019050919050565b60006020820190508181036000830152611cdc81611ca0565b9050919050565b7f4f776e61626c653a206e6577206f776e657220697320746865207a65726f206160008201527f6464726573730000000000000000000000000000000000000000000000000000602082015250565b6000611d3f6026836111ff565b9150611d4a82611ce3565b604082019050919050565b60006020820190508181036000830152611d6e81611d32565b9050919050565b7f4f776e61626c653a2063616c6c6572206973206e6f7420746865206f776e6572600082015250565b6000611dab6020836111ff565b9150611db682611d75565b602082019050919050565b60006020820190508181036000830152611dda81611d9e565b905091905056fea26469706673582212204c2344b7d7288036ccc6771f9207fc0b62c1e5589cd5b45aba8c99231e6f58e064736f6c63430008130033",
  "immutableReferences": {},
  "source": "pragma solidity ^0.8.0;\n\nimport \"@openzeppelin/contracts/access/Ownable.sol\";\n\ncontract Voting is Ownable {\n    enum WorkflowStatus {\n        RegisteringVoters,\n        ProposalsRegistrationStarted,\n        ProposalsRegistrationEnded,\n        VotingSessionStarted,\n        VotingSessionEnded,\n        VotesTallied\n    }\n\n    struct Voter {\n        bool isRegistered;\n        bool hasVoted;\n        uint votedProposalId;\n    }\n\n    struct Proposal {\n        string description;\n        uint voteCount;\n    }\n\n    mapping(address => Voter) public voters;\n    Proposal[] public proposals;\n\n    WorkflowStatus public status;\n\n    uint public winningProposalId;\n\n    event VoterRegistered(address voterAddress);\n    event WorkflowStatusChange(WorkflowStatus previousStatus, WorkflowStatus newStatus);\n    event ProposalRegistered(uint proposalId);\n    event Voted(address voter, uint proposalId);\n\n    modifier onlyRegisteredVoter() {\n        require(voters[msg.sender].isRegistered, \"Only registered voters can perform this action\");\n        _;\n    }\n\n    modifier onlyDuring(WorkflowStatus _status) {\n        require(status == _status, \"This action can only be performed during the specified status\");\n        _;\n    }\n\n    function registerVoter(address _voterAddress) public onlyOwner {\n        require(!voters[_voterAddress].isRegistered, \"Voter is already registered\");\n        voters[_voterAddress].isRegistered = true;\n        emit VoterRegistered(_voterAddress);\n    }\n\n    function startProposalRegistration() public onlyOwner onlyDuring(WorkflowStatus.RegisteringVoters) {\n        status = WorkflowStatus.ProposalsRegistrationStarted;\n        emit WorkflowStatusChange(WorkflowStatus.RegisteringVoters, WorkflowStatus.ProposalsRegistrationStarted);\n    }\n\n    function submitProposal(string memory _proposalDescription) public onlyRegisteredVoter onlyDuring(WorkflowStatus.ProposalsRegistrationStarted) {\n        proposals.push(Proposal(_proposalDescription, 0));\n        emit ProposalRegistered(proposals.length - 1);\n    }\n\n    function endProposalRegistration() public onlyOwner onlyDuring(WorkflowStatus.ProposalsRegistrationStarted) {\n        status = WorkflowStatus.ProposalsRegistrationEnded;\n        emit WorkflowStatusChange(WorkflowStatus.ProposalsRegistrationStarted, WorkflowStatus.ProposalsRegistrationEnded);\n    }\n\n    function startVotingSession() public onlyOwner onlyDuring(WorkflowStatus.ProposalsRegistrationEnded) {\n        status = WorkflowStatus.VotingSessionStarted;\n        emit WorkflowStatusChange(WorkflowStatus.ProposalsRegistrationEnded, WorkflowStatus.VotingSessionStarted);\n    }\n\n    function vote(uint _proposalId) public onlyRegisteredVoter onlyDuring(WorkflowStatus.VotingSessionStarted) {\n        require(!voters[msg.sender].hasVoted, \"Voter has already voted\");\n        voters[msg.sender].hasVoted = true;\n        voters[msg.sender].votedProposalId = _proposalId;\n\n        proposals[_proposalId].voteCount += 1;\n\n        emit Voted(msg.sender, _proposalId);\n    }\n\n    function endVotingSession() public onlyOwner onlyDuring(WorkflowStatus.VotingSessionStarted) {\n        status = WorkflowStatus.VotingSessionEnded;\n        emit WorkflowStatusChange(WorkflowStatus.VotingSessionStarted, WorkflowStatus.VotingSessionEnded);\n    }\n\n    function tallyVotes() public onlyOwner onlyDuring(WorkflowStatus.VotingSessionEnded) {\n        uint winningVoteCount = 0;\n        uint winningProposalIndex = 0;\n\n        for (uint i = 0; i < proposals.length; i++) {\n            if (proposals[i].voteCount > winningVoteCount) {\n                winningVoteCount = proposals[i].voteCount;\n                winningProposalIndex = i;\n            }\n        }\n        winningProposalId = winningProposalIndex;\n        status = WorkflowStatus.VotesTallied;\n        emit WorkflowStatusChange(WorkflowStatus.VotingSessionEnded, WorkflowStatus.VotesTallied);\n    }\n\n    function getWinner() public view returns (string memory) {\n        require(status == WorkflowStatus.VotesTallied, \"Votes must be tallied to get the winner\");\n        return proposals[winningProposalId].description;\n    }\n\n}\n",
  "sourcePath": "/home/crafa/IMT/dapp_project/contracts/Voting.sol",
  "compiler": {
    "name": "solc",
    "version": "0.8.19+commit.7dd6d404.Emscripten.clang"
  },
  "schemaVersion": "3.4.13",
  "updatedAt": "2023-05-03T07:39:54.827Z",
  "networkType": "ethereum",
  "devdoc": {
    "kind": "dev",
    "methods": {
      "owner()": {
        "details": "Returns the address of the current owner."
      },
      "renounceOwnership()": {
        "details": "Leaves the contract without owner. It will not be possible to call `onlyOwner` functions anymore. Can only be called by the current owner. NOTE: Renouncing ownership will leave the contract without an owner, thereby removing any functionality that is only available to the owner."
      },
      "transferOwnership(address)": {
        "details": "Transfers ownership of the contract to a new account (`newOwner`). Can only be called by the current owner."
      }
    },
    "version": 1
  },
  "userdoc": {
    "kind": "user",
    "methods": {},
    "version": 1
  }
}