{
  "contractName": "Whitelist",
  "abi": [
    {
      "anonymous": false,
      "inputs": [
        {
          "indexed": false,
          "internalType": "address",
          "name": "_address",
          "type": "address"
        }
      ],
      "name": "Authorized",
      "type": "event"
    },
    {
      "inputs": [
        {
          "internalType": "address",
          "name": "",
          "type": "address"
        }
      ],
      "name": "whitelist",
      "outputs": [
        {
          "internalType": "bool",
          "name": "",
          "type": "bool"
        }
      ],
      "stateMutability": "view",
      "type": "function",
      "constant": true
    },
    {
      "inputs": [
        {
          "internalType": "address",
          "name": "_address",
          "type": "address"
        }
      ],
      "name": "authorize",
      "outputs": [],
      "stateMutability": "nonpayable",
      "type": "function"
    },
    {
      "inputs": [
        {
          "internalType": "address",
          "name": "_address",
          "type": "address"
        }
      ],
      "name": "testCheck",
      "outputs": [
        {
          "internalType": "bool",
          "name": "",
          "type": "bool"
        }
      ],
      "stateMutability": "view",
      "type": "function",
      "constant": true
    }
  ],
  "bytecode": "0x608060405234801561001057600080fd5b506103a5806100206000396000f3fe608060405234801561001057600080fd5b50600436106100415760003560e01c806330ef3f45146100465780639b19251a14610076578063b6a5d7de146100a6575b600080fd5b610060600480360381019061005b9190610220565b6100c2565b60405161006d91906102a5565b60405180910390f35b610090600480360381019061008b9190610220565b61015a565b60405161009d91906102a5565b60405180910390f35b6100c060048036038101906100bb9190610220565b61017a565b005b6000816000808273ffffffffffffffffffffffffffffffffffffffff1673ffffffffffffffffffffffffffffffffffffffff16815260200190815260200160002060009054906101000a900460ff16610150576040517f08c379a0000000000000000000000000000000000000000000000000000000008152600401610147906102c0565b60405180910390fd5b6001915050919050565b60006020528060005260406000206000915054906101000a900460ff1681565b60016000808373ffffffffffffffffffffffffffffffffffffffff1673ffffffffffffffffffffffffffffffffffffffff16815260200190815260200160002060006101000a81548160ff0219169083151502179055507fdc84e3a4c83602050e3865df792a4e6800211a79ac60db94e703a820ce89292481604051610200919061028a565b60405180910390a150565b60008135905061021a81610358565b92915050565b60006020828403121561023257600080fd5b60006102408482850161020b565b91505092915050565b610252816102f1565b82525050565b61026181610303565b82525050565b60006102746019836102e0565b915061027f8261032f565b602082019050919050565b600060208201905061029f6000830184610249565b92915050565b60006020820190506102ba6000830184610258565b92915050565b600060208201905081810360008301526102d981610267565b9050919050565b600082825260208201905092915050565b60006102fc8261030f565b9050919050565b60008115159050919050565b600073ffffffffffffffffffffffffffffffffffffffff82169050919050565b7f41646472657373206973206e6f7420617574686f72697a656400000000000000600082015250565b610361816102f1565b811461036c57600080fd5b5056fea2646970667358221220c3a5c6e90984828338be387a2eeb705c53d9d89f2f22d92e3763de629d43be9864736f6c63430008040033",
  "immutableReferences": {},
  "source": "pragma solidity ^0.8.0;\n\ncontract Whitelist {\n    // Mapping pour stocker les adresses autorises\n    mapping(address => bool) public whitelist;\n\n    // vnement mis lorsqu'une adresse est autorise\n    event Authorized(address _address);\n\n    // Modifier pour vrifier si l'adresse est autorise\n    modifier check(address _address) {\n        require(whitelist[_address], \"Address is not authorized\");\n        _;\n    }\n\n    // Fonction pour autoriser une adresse en l'ajoutant au mapping\n    function authorize(address _address) public {\n        whitelist[_address] = true;\n        emit Authorized(_address);\n    }\n\n    function testCheck(address _address) public view check(_address) returns (bool) {\n        return true;\n    }\n\n}\n",
  "sourcePath": "/home/crafa/IMT/dapp_project/contracts/Whitelist.sol",
  "compiler": {
    "name": "solc",
    "version": "0.8.4+commit.c7e474f2.Emscripten.clang"
  },
  "schemaVersion": "3.4.13",
  "updatedAt": "2023-05-03T07:39:54.832Z",
  "networkType": "ethereum",
  "devdoc": {
    "kind": "dev",
    "methods": {},
    "version": 1
  },
  "userdoc": {
    "kind": "user",
    "methods": {},
    "version": 1
  }
}